:020000040800F2
:1000000000000220B91F0008011F0008091F000896
:10001000111F0008191F0008211F00080000000020
:10002000000000000000000000000000291F000880
:10003000371F000800000000451F0008531F00087C
:1000400009200008092000080920000809200008EC
:1000500009200008092000085F1F00080920000887
:1000600009200008092000080920000809200008CC
:1000700009200008092000080920000809200008BC
:100080006D1F000809200008092000080920000849
:10009000092000080920000809200008092000089C
:1000A000092000080920000809200008092000088C
:1000B000092000080920000809200008092000087C
:1000C000092000080920000809200008092000086C
:1000D00009200008811F00080920000809200008E5
:1000E000092000080920000809200008092000084C
:1000F000092000080920000809200008092000083C
:10010000092000080920000809200008092000082B
:10011000092000080920000809200008092000081B
:10012000092000080920000809200008092000080B
:1001300009200008092000080920000809200008FB
:1001400009200008092000080920000809200008EB
:1001500009200008092000080920000809200008DB
:1001600009200008092000080920000809200008CB
:1001700009200008092000080920000800000000EC
:08018000092000080920000815
:1001880010B5054C237833B9044B13B10448AFF3C9
:1001980000800123237010BD0C0000200000000027
:1001A800E867000808B5034B1BB103490348AFF3E0
:1001B800008008BD0000000010000020E86700086B
:1001C80081F0004102E000BF83F0004330B54FEA00
:1001D80041044FEA430594EA050F08BF90EA020F6D
:1001E8001FBF54EA000C55EA020C7FEA645C7FEA00
:1001F800655C00F0E2804FEA5454D4EB5555B8BF23
:100208006D420CDD2C4480EA020281EA030382EA93
:10021800000083EA010180EA020281EA0303362D25
:1002280088BF30BD11F0004F4FEA01314FF4801CF8
:100238004CEA113102D0404261EB410113F0004F0A
:100248004FEA03334CEA133302D0524263EB4303C1
:1002580094EA050F00F0A780A4F10104D5F1200E5F
:100268000DDB02FA0EFC22FA05F2801841F10001BA
:1002780003FA0EF2801843FA05F359410EE0A5F18E
:1002880020050EF1200E012A03FA0EFC28BF4CF0BF
:10029800020C43FA05F3C01851EBE37101F0004575
:1002A80007D54FF0000EDCF1000C7EEB00006EEB82
:1002B8000101B1F5801F1BD3B1F5001F0CD349080C
:1002C8005FEA30004FEA3C0C04F101044FEA445263
:1002D80012F5800F80F09A80BCF1004F08BF5FEAEA
:1002E800500C50F1000041EB045141EA050130BDCA
:1002F8005FEA4C0C404141EB0101013C28BFB1F5DC
:10030800801FE9D291F0000F04BF01460020B1FA26
:1003180081F308BF2033A3F10B03B3F120020CDAF9
:100328000C3208DD02F1140CC2F10C0201FA0CF0D7
:1003380021FA02F10CE002F11402D8BFC2F1200C3C
:1003480001FA02F120FA0CFCDCBF41EA0C019040F2
:10035800E41AA2BF01EB0451294330BD6FEA04043B
:100368001F3C1CDA0C340EDC04F11404C4F1200226
:1003780020FA04F001FA02F340EA030021FA04F338
:1003880045EA030130BDC4F10C04C4F1200220FA8F
:1003980002F001FA04F340EA0300294630BD21FACD
:1003A80004F0294630BD94F0000F83F4801306BF93
:1003B80081F480110134013D4EE77FEA645C18BF87
:1003C8007FEA655C29D094EA050F08BF90EA020F1E
:1003D80005D054EA000C04BF1946104630BD91EA16
:1003E800030F1EBF0021002030BD5FEA545C05D119
:1003F8004000494128BF41F0004130BD14F5800458
:100408003CBF01F5801130BD01F0004545F0FE41CB
:1004180041F470014FF0000030BD7FEA645C1ABF00
:10042800194610467FEA655C1CBF0B46024650EA37
:10043800013406BF52EA033591EA030F41F4002163
:1004480030BD00BF90F0000F04BF0021704730B5E9
:100458004FF4806404F132044FF000054FF00001BE
:1004680050E700BF90F0000F04BF0021704730B57F
:100478004FF4806404F1320410F0004548BF404254
:100488004FF000013EE700BF42004FEAE2014FEAA9
:1004980031014FEA02701FBF12F07F4393F07F4F84
:1004A80081F06051704732F07F4208BF704793F087
:1004B8007F4F04BF41F40021704730B54FF460749A
:1004C80001F0004521F000411CE700BF50EA01029D
:1004D80008BF704730B54FF000050AE050EA010246
:1004E80008BF704730B511F0004502D5404261EBB6
:1004F80041014FF4806404F132045FEA915C3FF4F7
:10050800D8AE4FF003025FEADC0C18BF03325FEA93
:10051800DC0C18BF033202EBDC02C2F1200300FA44
:1005280003FC20FA02F001FA03FE40EA0E0021FA69
:1005380002F11444BDE600BF4FF0FF3C06E000BFE7
:100548004FF0010C02E000BF4FF0010C4DF804CD54
:100558004FEA410C7FEA6C5C4FEA430C18BF7FEA14
:100568006C5C1BD001B050EA410C0CBF52EA430C42
:1005780091EA030F02BF90EA020F0020704710F1C2
:10058800000F91EA030F58BF994208BF90422CBF51
:10059800D8176FEAE37040F0010070474FEA410C4A
:1005A8007FEA6C5C02D150EA013C07D14FEA430C68
:1005B8007FEA6C5CD6D152EA033CD3D05DF8040BD9
:1005C800704700BF8446104662468C46194663460B
:1005D80000E000BF01B5FFF7B7FF002848BF10F1E2
:1005E800000F01BD4DF808EDFFF7F4FF0CBF012027
:1005F80000205DF808FB00BF4DF808EDFFF7EAFFA3
:1006080034BF012000205DF808FB00BF4DF808ED5D
:10061800FFF7E0FF94BF012000205DF808FB00BF52
:100628004DF808EDFFF7CEFF94BF012000205DF8DC
:1006380008FB00BF4DF808EDFFF7C4FF34BF0120E9
:1006480000205DF808FB00BF53B94AB9002908BF6C
:1006580000281CBF4FF0FF314FF0FF3000F088B981
:10066800ADF1080C6DE904CE00F006F8DDF804E001
:10067800DDE9022304B070472DE9F047089D8E4656
:1006880004468846002B4AD18A42174662D9B2FAF4
:1006980082F64EB1C6F1200301FA06F820FA03F3F8
:1006A800B74043EA0808B4404FEA174E1FFA87FCE0
:1006B800B8FBFEF1230C0EFB118843EA084301FB4B
:1006C8000CF29A4209D9FB1801F1FF3080F0EA8058
:1006D8009A4240F2E78002393B449A1AA3B2B2FB2D
:1006E800FEF00EFB102243EA024300FB0CFC9C4583
:1006F80009D9FB1800F1FF3280F0D6809C4540F202
:10070800D3803B44023840EA0140A3EB0C030021AC
:100718001DB1F3400022C5E90032BDE8F0878B42E5
:1007280005D90DB1C5E9000100210846F5E7B3FA7E
:1007380083F1002946D1734502D3824200F2058134
:10074800841A6EEB030201209046002DE5D0C5E91E
:100758000048E2E7002A00F09080B2FA82F6002E04
:1007680040F0A4808A1A030C4FEA174E80B2BCB23C
:100778000121B2FBFEFC0EFB1C2243EA024304FBF0
:100788000CF29A4207D9FB180CF1FF3802D29A42B0
:1007980000F2E080C4469B1AB3FBFEF20EFB123354
:1007A80040EA034302FB04F49C4207D9FB1802F118
:1007B800FF3002D29C4200F2CA8002461B1B42EA6A
:1007C8000C40A5E7C1F120068B4022FA06F71F432B
:1007D8000EFA01F420FA06F32EFA06FE4FEA17493C
:1007E800234300FA01F81FFA87FCBEFBF9F01C0C42
:1007F80009FB10EE44EA0E4400FB0CFEA64502FA83
:1008080001F209D93C1900F1FF3A80F09C80A64515
:1008180040F2998002383C44A4EB0E041FFA83FE90
:10082800B4FBF9F309FB13444EEA044403FB0CFC44
:10083800A44508D93C1903F1FF3E80F08280A44505
:100848007FD9023B3C4443EA0040A4EB0C04A0FBE4
:1008580002EC64457346E14662D35FD05DB1B8EB04
:10086800030264EB090404FA06F622FA01F31E43B4
:10087800CC40C5E9006400214FE7B1FBF2FC010C54
:1008880041EA0E4180B240EA01423B4638463C46C6
:10089800B846BE462026B1FBF7F1A2EB080241EAB2
:1008A8000C4166E7014618E710462CE7C6F120021E
:1008B8002EFA02F3B740B14020FA02F24FEA174E7F
:1008C8000A43B3FBFEF8BCB20EFB1833110C41EA25
:1008D800034108FB04F9B04089454FEA104380B250
:1008E8003ED9791808F1FF3C01D289451FD8A1EB00
:1008F8000901B1FBFEF909FB04F80EFB191192B2CC
:1009080042EA0142424529D2BA1809F1FF31C4D25C
:100918004245C2D2A9F102013A44BEE7F0459DD250
:10092800BEEB02036CEB070C0138E14696E7A7EB38
:1009380009094944A8F1020CB1FBFEF909FB04F8C6
:10094800DBE773467FE7504666E70846FDE63B442B
:10095800023A33E7ACF1020C3B441CE749469CE7FA
:10096800A1EB0901C446B1FBFEF909FB04F8C4E791
:10097800704700BF80B586B000AF0346FB710B46D9
:10098800BB7113467B71BB791A04FB791B021A43AE
:100998007B791343BB6000237B6117233B6119E01C
:1009A80001223B6902FA03F31A46BB681340002B85
:1009B80005D0194A7B690D2142F8231004E0164A34
:1009C8007B69062142F823107B6901337B613B690F
:1009D800013B3B613B69002BE2DA0023FB600AE044
:1009E8000D4A7B69002142F823107B6901337B6142
:1009F800FB680133FB60FB68312BF1DD04210748FC
:100A080003F0F4FD4A23044A0421044803F026FCB9
:100A180000BF1837BD4680BDE40200200001002059
:100A280080B500AF01F054FB0246354B1B68D31A62
:100A3800B3F57A7F5DD301F04BFB0346304A136070
:100A4800304801F095FB0A212E4801F096FC034638
:100A5800002B4BD12B4801F01BFD07EE900AF8EE56
:100A6800677A9FED297A67EE877A284BC3ED007A7B
:100A7800264BD3ED007AB0EE087AF4EEC77AF1EEA1
:100A880010FA15DD214B1B681846FFF7FDFC1AA369
:100A9800D3E90023FFF7B0FD0346002B08D000225E
:100AA8000021FF20FFF766FF194B01221A701DE095
:100AB800164B1B681846FFF7E7FC0FA3D3E9002382
:100AC800FFF7AEFD0346002B08D00022FF210020CF
:100AD800FFF750FF0E4B00221A7007E0FF2200219B
:100AE8000020FFF747FF0A4B00221A70054801F063
:100AF80011FC00BF80BD00BF6666666666661A4068
:100B08001404002028000020503A113C0C04002056
:100B18001004002080B500AF1F4B1B78012B31D18A
:100B280001F0D6FA02461D4B1B68D31AC72B0ED903
:100B380001F0CEFA0346194A1360194B1B78002BB3
:100B48000CBF01230023DBB21A46154B1A70144B55
:100B58001B78012B10D101F0BBFA0246114B1B6820
:100B68009A4217D001F0B4FA03460E4A13604021A6
:100B78000D4802F082FD0DE0002240210A4802F0F3
:100B880063FD07E0064B00221A7000224021064848
:100B980002F05AFD00BF80BD100400201804002098
:100BA800200400201C0400200000024080B582B010
:100BB80000AF01F08DFA02461D4B1B68D31A312B8A
:100BC80031D901F085FA0346194A1360194B1B689D
:100BD8005B6AFB80184B1B685B6ABB80174BAA22B9
:100BE8001A70164B55225A70B7F906301B121BB2F1
:100BF800DAB2124B9A70FB88DAB2104BDA70B7F996
:100C080004301B121BB2DAB20C4B1A71BB88DAB271
:100C18000A4B5A71094BFF229A710A230722074986
:100C2800074804F095FD00BF0837BD4680BD00BFEA
:100C3800E0020020B800002048010020D80200206F
:100C48008002002080B500AF01F042FA0246374B1F
:100C58001B68D31AB3F5C87F0ED301F039FA0346DF
:100C6800324A1360324B1B78002B0CBF0123002340
:100C7800DBB21A462E4B1A702E4B1B7803F0040376
:100C8800002B04D12C4B1B78DBB2012B06D101229F
:100C98004FF40071294802F0D7FC05E000224FF418
:100CA8000071264802F0D0FC224B1B7803F00103A8
:100CB800002B12D0204B1B78DBB2002B0DD11C4B24
:100CC8001B78002B14BF01230023DBB21A464FF414
:100CD80000611B4802F0B8FC05E000224FF40061F7
:100CE800174802F0B1FC134B1B7803F00203002BEA
:100CF80012D0114B1B78DBB2002B0DD10C4B1B789B
:100D0800002B14BF01230023DBB21A464FF4805195
:100D18000B4802F099FC06E000224FF48051084885
:100D280002F092FC00BF00BF80BD00BF2404002079
:100D3800280400202204002021040020000802408A
:100D48000000024080B500AF01F05CF900F052F8F5
:100D580000F006FC00F0E4FB00F0AAF800F0FAF856
:100D680000F0DCF900F0A4FA00F042FB00F0AEFB62
:100D780000F080F900F048FA0021174803F0A6F9BE
:100D88000421154803F0A2F90021144803F09EF944
:100D98000421124803F09AF93C21114803F09EFD02
:100DA8003C21104803F09AFD08210F4803F08EF902
:100DB8000D4B1B6840F2DC52DA6301220B490C48E8
:100DC80004F051FDFFF72CFEFFF7A4FEFFF7EEFE3F
:100DD800FFF738FF00BFF5E770000020D8010020BA
:100DE800B80000204801002090010020C80200201F
:100DF8008002002080B594B000AF07F120033022B4
:100E08000021184605F0C0FC07F10C0300221A6007
:100E18005A609A60DA601A610023BB60224B1B6C2F
:100E2800214A43F0805313641F4B1B6C03F080531B
:100E3800BB60BB6800237B601C4B1B681B4A43F4E8
:100E480080431360194B1B6803F480437B607B6805
:100E580002233B620123FB6210233B630023BB6335
:100E680007F12003184602F03BFC0346002B01D093
:100E780000F08EFD0F23FB6000233B6100237B61A4
:100E88000023BB610023FB6107F10C030021184616
:100E980002F09EFE0346002B01D000F079FD00BF52
:100EA8005037BD4680BD00BF00380240007000408A
:100EB80080B584B000AF3B4600221A605A609A6041
:100EC800DA60214B214A1A601F4B00225A601E4BE0
:100ED80000229A601C4B00221A611B4B00221A76D2
:100EE800194B002283F82020174B0022DA62164B98
:100EF800174A9A62144B0022DA60134B0122DA6116
:100F0800114B002283F830200F4B01225A610E4802
:100F180001F0EAF80346002B01D000F039FD082360
:100F28003B6001237B600023BB603B4619460648B3
:100F380001F0BCFA0346002B01D000F029FD00BFE8
:100F48001037BD4680BD00BF2800002000200140AA
:100F58000100000F80B592B000AF07F140030022F6
:100F68001A605A6007F1240300221A605A609A60D6
:100F7800DA601A615A619A613B1D202200211846E5
:100F880005F002FC394B3A4A1A60384B0F225A6076
:100F9800364B00229A60354B40F2E732DA60334B29
:100FA80000221A61314B00225A61304B00229A61AB
:100FB8002E4803F03CF80346002B01D000F0E8FC73
:100FC80000233B6400237B6407F14003194627484C
:100FD80004F0A0FA0346002B01D000F0D9FC6023EE
:100FE8007B620023BB620023FB6200233B63002378
:100FF8007B630023BB630023FB6307F12403002208
:1010080019461A4803F0F8FC0346002B01D000F0FB
:10101800BFFC07F1240304221946144803F0ECFC32
:101028000346002B01D000F0B3FC00237B600023B3
:10103800BB600023FB6000233B6100237B614FF40E
:101048000053BB6100233B623B1D1946074804F06F
:10105800DDFA0346002B01D000F09AFC034800F0AB
:1010680049FE00BF4837BD4680BD00BF7000002064
:101078000000014080B58CB000AF07F10C032422BA
:101088000021184605F080FB3B1D00221A605A60BB
:10109800214B4FF080421A601F4B00225A601E4BB2
:1010A80000229A601C4B4FF6FF72DA601A4B00223E
:1010B8001A61194B00229A610323FB6000233B61EC
:1010C80001237B610023BB610023FB6100233B629A
:1010D80001237B620023BB620023FB6207F10C0340
:1010E80019460D4803F054FB0346002B01D000F0CD
:1010F8004FFC00237B600023BB603B1D194606485C
:1011080004F008FA0346002B01D000F041FC00BFB0
:101118003037BD4680BD00BFB800002080B58EB016
:1011280000AF07F1280300221A605A609A60DA605B
:1011380007F1200300221A605A603B1D00221A6042
:101148005A609A60DA601A615A619A612C4B2D4A8A
:101158001A602B4B00225A60294B00229A60284BB8
:101168001322DA60264B00221A61254B00229A616D
:10117800234802F00DFF0346002B01D000F008FCC5
:101188004FF48053BB6207F1280319461C4803F04B
:10119800F5FC0346002B01D000F0FAFB184802F0DA
:1011A80046FF0346002B01D000F0F2FB00233B6210
:1011B80000237B6207F120031946114804F0AAF9BD
:1011C8000346002B01D000F0E3FB60237B60002383
:1011D800BB600023FB6000237B613B1D0422194692
:1011E800074803F009FC0346002B01D000F0D0FBB0
:1011F800034800F07FFD00BF3837BD4680BD00BF03
:10120800000100200004004080B58CB000AF07F159
:101218000C0324220021184605F0B6FA3B1D0022D3
:101228001A605A60204B214A1A601F4B00225A60EC
:101238001D4B00229A601C4B4FF6FF72DA601A4B66
:1012480000221A61184B00229A610323FB600023D5
:101258003B6101237B610023BB610023FB61002309
:101268003B6201237B620023BB620023FB6207F120
:101278000C0319460C4803F08BFA0346002B01D0E7
:1012880000F086FB00237B600023BB603B1D1946F2
:10129800054804F03FF90346002B01D000F078FB25
:1012A80000BF3037BD4680BD48010020000800401F
:1012B80080B596B000AF07F1480300221A605A6063
:1012C8009A60DA6007F1400300221A605A6007F159
:1012D800240300221A605A609A60DA601A615A611F
:1012E8009A613B1D20220021184605F04DFA3E4B1D
:1012F8003E4A1A603C4B0F225A603B4B00229A60D0
:10130800394B44F61F62DA60374B00221A61364BBC
:1013180000225A61344B00229A61334802F038FEA9
:101328000346002B01D000F033FB4FF48053BB641D
:1013380007F1480319462C4803F020FC0346002B0C
:1013480001D000F025FB284802F071FE0346002B6F
:1013580001D000F01DFB00233B6400237B6407F1F0
:1013680040031946204804F0D5F80346002B01D065
:1013780000F00EFB60237B620023BB620023FB624C
:1013880000233B6300237B630023BB630023FB63D1
:1013980007F1240308221946134803F02DFB0346DE
:1013A800002B01D000F0F4FA00237B600023BB601F
:1013B8000023FB6000233B6100237B614FF4005353
:1013C800BB6100233B623B1D1946074804F01EF928
:1013D8000346002B01D000F0DBFA034800F08AFC3A
:1013E80000BF5837BD4680BD900100200004014071
:1013F80080B58CB000AF07F1200300221A605A6054
:101408009A60DA603B1D00221A605A609A60DA60BE
:101418001A615A619A612B4B2B4A1A60294B0F2289
:101428005A60284B00229A60264B40F2E732DA6075
:10143800244B00221A61234B00229A61214802F0B2
:10144800A7FD0346002B01D000F0A2FA4FF4805309
:101458003B6207F1200319461A4803F08FFB034645
:10146800002B01D000F094FA164802F0E0FD034684
:10147800002B01D000F08CFA60237B600023BB6056
:101488000023FB6000237B613B1D002219460D48A9
:1014980003F0B2FA0346002B01D000F079FA3B1DA5
:1014A80004221946074803F0A7FA0346002B01D087
:1014B80000F06EFA034800F01DFC00BF3037BD464F
:1014C80080BD00BFD80100200040014080B500AFBA
:1014D800114B124A1A60104B4FF4E1325A600E4B0E
:1014E80000229A600C4B0022DA600B4B00221A6132
:1014F800094B0C225A61084B00229A61064B0022C4
:10150800DA61054804F0D4F80346002B01D000F056
:101518003FFA00BF80BD00BF8002002000100140DC
:1015280080B582B000AF00237B600C4B1B6B0B4A6D
:1015380043F400131363094B1B6B03F400137B6024
:101548007B6800220021102001F0A9FA102001F088
:10155800C2FA00BF0837BD4680BD00BF0038024050
:1015680080B58CB000AF07F11C0300221A605A60E6
:101578009A60DA601A610023BB61554B1B6B544AB1
:1015880043F010031363524B1B6B03F01003BB6152
:10159800BB6900237B614E4B1B6B4D4A43F08003B4
:1015A80013634B4B1B6B03F080037B617B69002348
:1015B8003B61474B1B6B464A43F001031363444BA3
:1015C8001B6B03F001033B613B690023FB60404B4D
:1015D8001B6B3F4A43F0020313633D4B1B6B03F045
:1015E8000203FB60FB680023BB60394B1B6B384A66
:1015F80043F008031363364B1B6B03F00803BB600F
:10160800BB6800237B60324B1B6B314A43F00403F9
:1016180013632F4B1B6B03F004037B607B68002272
:101628004FF4C2512B4802F00FF800224FF4C0616A
:10163800294802F009F800224FF40071274802F007
:1016480003F84FF4C253FB6101233B6200237B6222
:101658000023BB6207F11C0319461E4801F058FE1F
:101668004FF4C063FB6101233B6200237B620023CC
:10167800BB6207F11C031946174801F049FE4FF4F5
:101688000073FB6101233B6200237B620023BB6282
:1016980007F11C031946114801F03AFE0123FB61CA
:1016A8004FF404133B6200237B6207F11C031946C5
:1016B8000B4801F02DFE00220021062001F0EFF971
:1016C800062001F008FA00BF3037BD4680BD00BFD4
:1016D8000038024000000240000C024000080240AE
:1016E8000010024080B584B000AF0346FB8000F0D4
:1016F800EFFCF8600D4B1B68FA68D31AC82B0DD99C
:10170800FB88012B0AD10A4B1B78DBB2002B0CBFDC
:1017180001230023DBB21A46054B1A70034AFB6803
:10172800136000BF1037BD4680BD00BF2C040020E9
:101738002104002080B584B000AF78607B681B6806
:10174800884A934240F00A81874B1B78002B10D1BE
:10175800864B1B78AA2B40F0FC80834B1B785A1CC5
:10176800D1B2814A11701A46804B1978804B99542E
:10177800EFE07D4B1B78012B13D17C4B1B78552B4D
:101788000BD1794B1B785A1CD1B2774A11701A4683
:10179800764B1978764B9954DBE0734B00221A701C
:1017A800D7E0714B1B785A1CD1B26F4A11701A4698
:1017B8006E4B19786E4B99546B4B1B78072B40F284
:1017C800C880694B00221A70694BDB79FF2B40F007
:1017D800C080674B9A78674B1A70654BDB787B73D0
:1017E800634B1B793B73624B5B791BB21B021AB2CA
:1017F8005F4B9B791BB213431BB2FB815E4B1B787B
:10180800DBB2012B25D15D4B1B6840F29B52DA639A
:1018180000224FF400715A4801F016FF00224FF4DD
:101828008061574801F010FF564B1B684FF47A72DD
:101838005A63544B1B684FF47A729A63524B1B6875
:101848004FF47A725A63504B1B684FF47A729A635A
:101858007FE0FB8940F2CC62934202D940F2CC632C
:10186800FB81FB8940F25542934202D840F256432D
:10187800FB81FB89002B02D140F29B53FB813F4B3C
:101888001B68FA89DA633A7B13469B0013445B00B2
:10189800BB607B7B022B1CD101224FF400713848BE
:1018A80001F0D2FE00224FF48061354801F0CCFEF1
:1018B800344B1B6800225A63324B1B68BA689A6320
:1018C800314B1B6800225A632F4B1B68BA689A6316
:1018D8003FE07B7B012B1CD100224FF4007128488C
:1018E80001F0B2FE01224FF48061254801F0ACFE00
:1018F800244B1B68BA685A63224B1B6800229A6300
:10190800214B1B68BA685A631F4B1B6800229A63F5
:101918001FE000224FF40071194801F095FE0022E3
:101928004FF48061164801F08FFE164B1B684FF488
:101938007A725A63134B1B684FF47A729A63124B8C
:101948001B684FF47A725A630F4B1B684FF47A7214
:101958009A63012205490D4803F085FF00BF10373F
:10196800BD4680BD00100140D4020020C8020020FE
:10197800CC02002022040020210400209001002035
:10198800000C024070000020D801002080020020D6
:1019980080B400AF72B600BF00BFFDE780B483B06B
:1019A80000AF00237B60104B5B6C0F4A43F480430D
:1019B80053640D4B5B6C03F480437B607B680023AE
:1019C8003B60094B1B6C084A43F080531364064B79
:1019D8001B6C03F080533B603B6800BF0C37BD466F
:1019E8005DF8047B704700BF0038024080B58AB0BC
:1019F80000AF786007F1140300221A605A609A60F9
:101A0800DA601A617B681B68174A934227D1002362
:101A18003B61164B5B6C154A43F480735364134B5C
:101A28005B6C03F480733B613B690023FB600F4BE5
:101A38001B6B0E4A43F0020313630C4B1B6B03F042
:101A48000203FB60FB6801237B610323BB61002366
:101A5800FB6107F114031946054801F059FC00BF62
:101A68002837BD4680BD00BF002001400038024035
:101A78000004024080B485B000AF78607B681B68C2
:101A88000B4A93420DD10023FB600A4B5B6C094A59
:101A980043F001035364074B5B6C03F00103FB60E5
:101AA800FB6800BF1437BD465DF8047B704700BF74
:101AB800000001400038024080B58CB000AF78606B
:101AC80007F11C0300221A605A609A60DA601A61F2
:101AD8007B681B68B3F1804F4BD10023BB61404B3F
:101AE8001B6C3F4A43F0010313643D4B1B6C03F02E
:101AF8000103BB61BB6900237B61394B1B6B384A0F
:101B080043F001031363364B1B6B03F001037B6146
:101B18007B6900233B61324B1B6B314A43F0020364
:101B280013632F4B1B6B03F002033B613B694FF4BC
:101B38000043FB6102233B6200237B620023BB62FC
:101B48000123FB6207F11C031946264801F0E0FB5C
:101B58000823FB6102233B6200237B620023BB62F4
:101B68000123FB6207F11C0319461F4801F0D0FB53
:101B780031E07B681B681D4A93422CD10023FB602F
:101B8800174B1B6C164A43F004031364144B1B6C6D
:101B980003F00403FB60FB680023BB60104B1B6B66
:101BA8000F4A43F0080313630D4B1B6B03F0080344
:101BB800BB60BB684FF44053FB6102233B620023C8
:101BC8007B620023BB620223FB6207F11C031946F8
:101BD800074801F09DFB00BF3037BD4680BD00BF00
:101BE80000380240000002400004024000080040A3
:101BF800000C024080B586B000AF78607B681B6837
:101C0800364A93423ED100237B61354B1B6C344AE4
:101C180043F002031364324B1B6C03F002037B6135
:101C28007B69304B304A1A602E4B4FF020625A6065
:101C38002C4B00229A602B4B0022DA60294B4FF480
:101C480080621A61274B4FF480525A61254B4FF43A
:101C580080429A61234B0022DA61224B00221A62E9
:101C6800204B00225A621F4800F050FF0346002B09
:101C780001D0FFF78DFE7B681A4A9A62194A7B6881
:101C8800936326E07B681B68184A93420ED10023B1
:101C98003B61134B5B6C124A43F002035364104BD5
:101CA8005B6C03F002033B613B6912E07B681B68D5
:101CB8000F4A93420DD10023FB60094B5B6C084A25
:101CC80043F480335364064B5B6C03F48033FB604E
:101CD800FB6800BF1837BD4680BD00BF0004004048
:101CE80000380240200200208860024000040140C1
:101CF8000040014080B58CB000AF786007F11C034C
:101D080000221A605A609A60DA601A617B681B6860
:101D1800494A93421FD10023BB61484B1B6B474A7A
:101D280043F010031363454B1B6B03F01003BB61B7
:101D3800BB694FF42063FB6102233B6200237B6293
:101D48000023BB620123FB6207F11C0319463C48D0
:101D580001F0DEFA6BE07B681B683A4A93421ED1B9
:101D680000237B61354B1B6B344A43F0010313633B
:101D7800324B1B6B03F001037B617B698023FB61A2
:101D880002233B6200237B620023BB620223FB62C7
:101D980007F11C0319462C4801F0BAFA47E07B68A2
:101DA8001B682A4A93421FD100233B61234B1B6BBC
:101DB800224A43F004031363204B1B6B03F0040314
:101DC8003B613B694FF48073FB6102233B62002354
:101DD8007B620023BB620323FB6207F11C031946E5
:101DE8001B4801F095FA22E07B681B68194A934268
:101DF8001DD10023FB60114B1B6B104A43F01003ED
:101E080013630E4B1B6B03F01003FB60FB6860232E
:101E1800FB6102233B6200237B620023BB62032336
:101E2800FB6207F11C031946054801F071FA00BF6F
:101E38003037BD4680BD00BF000001400038024079
:101E4800001002400004004000000240000401406D
:101E5800000802400040014080B58AB000AF7860B9
:101E680007F1140300221A605A609A60DA601A6156
:101E78007B681B681D4A934234D100233B611C4B8D
:101E88005B6C1B4A43F010035364194B5B6C03F003
:101E980010033B613B690023FB60154B1B6B144A25
:101EA80043F001031363124B1B6B03F00103FB6048
:101EB800FB684FF4C0637B610223BB610023FB61B5
:101EC80003233B6207237B6207F114031946094881
:101ED80001F01EFA00220021252000F0E0FD252057
:101EE80000F0F9FD00BF2837BD4680BD0010014055
:101EF800003802400000024080B400AF00BFFDE798
:101F080080B400AF00BFFDE780B400AF00BFFDE7BD
:101F180080B400AF00BFFDE780B400AF00BFFDE7AD
:101F280080B400AF00BFBD465DF8047B704780B445
:101F380000AF00BFBD465DF8047B704780B400AFBA
:101F480000BFBD465DF8047B704780B500AF00F068
:101F5800ABF800BF80BD80B500AF012001F0A8FB41
:101F680000BF80BD80B500AF024800F067FF00BF2A
:101F780080BD00BF2002002080B500AF024803F0FA
:101F880097FC00BF80BD00BF8002002080B400AF76
:101F9800064BD3F88830054A43F47003C2F88830FA
:101FA80000BFBD465DF8047B704700BF00ED00E050
:101FB800DFF834D0FFF7EAFF0C480D490D4A00233B
:101FC80002E0D458C4500433C4188C42F9D30A4AE6
:101FD8000A4C002301E013600432A242FBD304F050
:101FE800DBFBFEF7AFFE7047000002200000002078
:101FF8000C000020306800080C0000203404002089
:10200800FEE7000080B500AF0E4B1B680D4A43F495
:10201800007313600B4B1B680A4A43F48063136018
:10202800084B1B68074A43F480731360032000F0D1
:102038002BFD0F2000F008F8FFF7B0FC002318462E
:1020480080BD00BF003C024080B582B000AF786020
:10205800124B1A68124B1B7819464FF47A73B3FB6C
:10206800F1F3B2FBF3F3184600F043FD0346002BEF
:1020780001D001230EE07B680F2B0AD80022796873
:102088004FF0FF3000F00BFD064A7B681360002319
:1020980000E0012318460837BD4680BD0000002037
:1020A800080000200400002080B400AF064B1B7815
:1020B8001A46064B1B681344044A136000BFBD460A
:1020C8005DF8047B704700BF080000203004002042
:1020D80080B400AF034B1B681846BD465DF8047B0F
:1020E800704700BF3004002080B584B000AF78602E
:1020F8000023FB737B68002B01D1012333E07B684D
:102108001B6C002B09D17868FFF770FC7B680022F4
:102118005A647B68002283F83C207B681B6C03F0C0
:102128001003002B18D17B681B6C23F4885323F011
:10213800020343F002027B681A64786800F0D8FA58
:102148007B6800225A647B681B6C23F0030343F00E
:1021580001027B681A6401E00123FB737B6800229B
:1021680083F83C20FB7B18461037BD4680BD000035
:1021780080B485B000AF78600023BB607B6893F8BB
:102188003C30012B01D10223B2E07B68012283F8A5
:102198003C207B681B689B6803F00103012B18D067
:1021A8007B681B689A687B681B6842F001029A602A
:1021B800524B1B68524AA2FB03239A0C13465B003E
:1021C8001344BB6002E0BB68013BBB60BB68002BEB
:1021D800F9D17B681B689B6803F00103012B7AD156
:1021E8007B681B6C23F4E06323F0010343F48072E3
:1021F8007B681A647B681B685B6803F48063002B48
:1022080007D07B681B6C23F4405343F480527B68EF
:102218001A647B681B6C03F48053B3F5805F06D1A6
:102228007B685B6C23F006027B685A6402E07B687B
:1022380000225A647B68002283F83C20314BFB6003
:102248007B681B686FF022021A60FB685B6803F00A
:102258001F03002B2AD17B681B682B4A934215D099
:102268007B681B68294A934205D1264B5B6803F0BB
:102278001F03002B0AD07B681B68254A934236D17E
:10228800204B5B6803F01003002B30D17B681B6880
:102298009B6803F04053002B29D17B681B689A6820
:1022A8007B681B6842F080429A6020E07B681B686C
:1022B800154A93421BD17B681B689B6803F0405307
:1022C800002B14D17B681B689A687B681B6842F0F6
:1022D80080429A600BE07B681B6C43F010027B68BD
:1022E8001A647B685B6C43F001027B685A640023C4
:1022F80018461437BD465DF8047B7047000000207F
:1023080083DE1B43002301400020014000210140DF
:102318000022014080B483B000AF78607B6893F8F6
:102328003C30012B01D1022321E07B68012283F894
:102338003C207B681B689A687B681B6822F0010256
:102348009A607B681B689B6803F00103002B09D126
:102358007B681B6C23F4885323F0010343F00102CC
:102368007B681A647B68002283F83C2000231846A7
:102378000C37BD465DF8047B704780B584B000AF6C
:10238800786039600023FB607B681B689B6803F4F6
:102398008063B3F5806F13D17B681B689B6803F477
:1023A8008073B3F5807F0BD17B681B6C43F02002F0
:1023B8007B681A647B68002283F83C20012363E071
:1023C800FFF786FEF86021E03B68B3F1FF3F1DD0C0
:1023D8003B68002B07D0FFF77BFE0246FB68D31A49
:1023E8003A689A4212D27B681B681B6803F00203A2
:1023F800022B0BD07B681B6C43F004027B681A64C9
:102408007B68002283F83C2003233DE07B681B683F
:102418001B6803F00203022BD6D17B681B686FF0A0
:1024280012021A607B681B6C43F400727B681A64A2
:102438007B681B689B6803F04053002B23D17B68A3
:102448001B7E002B1FD17B681B68DB6A03F47003BB
:10245800002B06D07B681B689B6803F48063002B05
:1024680011D17B681B6C23F480727B681A647B68CB
:102478001B6C03F48053002B05D17B681B6C43F065
:1024880001027B681A64002318461037BD4680BDD8
:1024980080B483B000AF78607B681B68DB6C18463B
:1024A8000C37BD465DF8047B7047000080B485B0EA
:1024B80000AF786039600023BB607B6893F83C30DC
:1024C800012B01D1022305E17B68012283F83C201E
:1024D8003B681B68092B25D97B681B68D9683B6852
:1024E8001B689BB21A4613465B0013441E3B072227
:1024F80002FA03F3DA437B681B680A40DA607B68F8
:102508001B68D9683B689A683B681B689BB2184689
:1025180003465B0003441E3B9A407B681B680A43E2
:10252800DA6022E07B681B6819693B681B689BB20C
:102538001A4613465B001344072202FA03F3DA43F0
:102548007B681B680A401A617B681B6819693B68CD
:102558009A683B681B689BB2184603465B000344B5
:102568009A407B681B680A431A613B685B68062BC4
:1025780024D87B681B68596B3B685A6813469B00D4
:102588001344053B1F2202FA03F3DA437B681B68F6
:102598000A405A637B681B68596B3B681B689BB28F
:1025A80018463B685A6813469B001344053B00FADB
:1025B80003F27B681B680A435A634CE03B685B681C
:1025C8000C2B24D87B681B68196B3B685A68134628
:1025D8009B001344233B1F2202FA03F3DA437B6870
:1025E8001B680A401A637B681B68196B3B681B6889
:1025F8009BB218463B685A6813469B001344233B1A
:1026080000FA03F27B681B680A431A6323E07B68BD
:102618001B68D96A3B685A6813469B001344413BC0
:102628001F2202FA03F3DA437B681B680A40DA6266
:102638007B681B68D96A3B681B689BB218463B6875
:102648005A6813469B001344413B00FA03F27B6827
:102658001B680A43DA62224BFB607B681B68214ACD
:10266800934209D13B681B68122B05D1FB685B6854
:1026780043F48002FB685A607B681B68194A9342DE
:1026880023D13B681B68102B03D03B681B68112BB8
:102698001BD1FB685B6843F40002FB685A603B6827
:1026A8001B68102B11D1104B1B68104AA2FB032387
:1026B8009A0C13469B0013445B00BB6002E0BB68A6
:1026C800013BBB60BB68002BF9D17B68002283F813
:1026D8003C20002318461437BD465DF8047B70473C
:1026E80000230140002001400000002083DE1B433E
:1026F80080B485B000AF7860794BFB60FB685B689D
:1027080023F44032FB685A60FB685A687B685B6850
:102718001A43FB685A607B681B685A687B681B68A9
:1027280022F480725A607B681B6859687B681B6951
:102738001A027B681B680A435A607B681B685A68E0
:102748007B681B6822F040725A607B681B68596876
:102758007B689A687B681B680A435A607B681B68B9
:102768009A687B681B6822F400629A607B681B6821
:1027780099687B68DA687B681B680A439A607B689B
:102788009B6A584A934222D07B681B689A687B6888
:102798001B6822F070629A607B681B6899687B6886
:1027A8009A6A7B681B680A439A607B681B689A6808
:1027B8007B681B6822F040529A607B681B689968A6
:1027C8007B68DA6A7B681B680A439A600FE07B685B
:1027D8001B689A687B681B6822F070629A607B6845
:1027E8001B689A687B681B6822F040529A607B6875
:1027F8001B689A687B681B6822F002029A607B68F3
:102808001B6899687B681B7E5A007B681B680A43B3
:102818009A607B6893F82030002B1BD07B681B687C
:102828005A687B681B6842F400625A607B681B68C0
:102838005A687B681B6822F460425A607B681B6890
:1028480059687B685B6A013B5A037B681B680A43CB
:102858005A6007E07B681B685A687B681B6822F42B
:1028680000625A607B681B68DA6A7B681B6822F41E
:102878007002DA627B681B68D96A7B68DB69013B96
:102888001A057B681B680A43DA627B681B689A68CA
:102898007B681B6822F400729A607B681B689968E1
:1028A8007B6893F830305A027B681B680A439A6049
:1028B8007B681B689A687B681B6822F480629A6050
:1028C8007B681B6899687B685B699A027B681B68F0
:1028D8000A439A6000BF1437BD465DF8047B704711
:1028E800002301400100000F80B485B000AF78607C
:1028F8007B6803F00703FB600C4BDB68BB60BA68BE
:102908004FF6FF031340BB60FB681A02BB68134312
:1029180043F0BF6343F40033BB60044ABB68D36031
:1029280000BF1437BD465DF8047B704700ED00E03A
:1029380080B400AF044BDB681B0A03F0070318469A
:10294800BD465DF8047B704700ED00E080B483B0BD
:1029580000AF0346FB7197F90730002B0BDBFB79BF
:1029680003F01F02074997F907305B09012000FAB5
:1029780002F241F8232000BF0C37BD465DF8047B06
:10298800704700BF00E100E080B483B000AF0346A9
:102998003960FB7197F90730002B0ADB3B68DAB224
:1029A8000C4997F907301201D2B20B4483F800237F
:1029B8000AE03B68DAB20849FB7903F00F03043BED
:1029C8001201D2B20B441A7600BF0C37BD465DF82F
:1029D800047B704700E100E000ED00E080B489B0BE
:1029E80000AFF860B9607A60FB6803F00703FB6129
:1029F800FB69C3F10703042B28BF0423BB61FB69F0
:102A08000433062B02D9FB69033B00E000237B61FA
:102A18004FF0FF32BB6902FA03F3DA43BB681A408E
:102A28007B699A404FF0FF317B6901FA03F3D94380
:102A38007B680B40134318462437BD465DF8047B7A
:102A48007047000080B582B000AF78607B68013BBA
:102A5800B3F1807F01D301230FE00A4A7B68013B71
:102A680053600F214FF0FF30FFF78EFF054B002218
:102A78009A60044B07221A60002318460837BD469F
:102A880080BD00BF10E000E080B582B000AF786084
:102A98007868FFF729FF00BF0837BD4680BD80B5BD
:102AA80086B000AF0346B9607A60FB7300237B6190
:102AB800FFF73EFF78617A68B9687869FFF78EFF9B
:102AC800024697F90F3011461846FFF75DFF00BF21
:102AD8001837BD4680BD80B582B000AF0346FB7194
:102AE80097F907301846FFF731FF00BF0837BD4692
:102AF80080BD80B582B000AF78607868FFF7A2FF2C
:102B0800034618460837BD4680BD000080B586B02C
:102B180000AF786000237B61FFF7DAFA38617B68E1
:102B2800002B01D1012399E07B68022283F835202C
:102B38007B68002283F834207B681B681A687B68EE
:102B48001B6822F001021A600FE0FFF7C1FA024683
:102B58003B69D31A052B08D97B6820225A657B6804
:102B6800032283F83520032378E07B681B681B6801
:102B780003F00103002BE8D17B681B681B687B61AD
:102B88007A69384B13407B617B685A687B689B681D
:102B98001A437B68DB681A437B681B691A437B68A6
:102BA8005B691A437B689B691A437B68DB691A4334
:102BB8007B681B6A13437A6913437B617B685B6A92
:102BC800042B07D17B68DA6A7B681B6B13437A692D
:102BD80013437B617B681B687A691A607B681B6892
:102BE8005B697B617B6923F007037B617B685B6AB8
:102BF8007A6913437B617B685B6A042B17D17B6816
:102C08009B6A7A6913437B617B68DB6A002B0ED071
:102C1800786800F001FB0346002B08D07B6840224F
:102C28005A657B68012283F83520012316E07B680A
:102C38001B687A695A61786800F0B8FA0346FB6045
:102C48007B68DB6D3F229A40FB689A607B680022B4
:102C58005A657B68012283F8352000231846183707
:102C6800BD4680BD3F8010F080B586B000AFF860EB
:102C7800B9607A603B600023FB75FB689B6D3B6124
:102C8800FB6893F83430012B01D1022340E0FB6844
:102C9800012283F83420FB6893F83530DBB2012B2E
:102CA8002FD1FB68022283F83520FB6800225A6581
:102CB8003B687A68B968F86800F04AFAFB68DB6D27
:102CC8003F229A403B699A60FB681B681A68FB6858
:102CD8001B6842F016021A60FB681B6C002B07D0B9
:102CE800FB681B681A68FB681B6842F008021A60D8
:102CF800FB681B681A68FB681B6842F001021A60CF
:102D080005E0FB68002283F834200223FB75FB7D75
:102D180018461837BD4680BD80B584B000AF7860CE
:102D28007B689B6DFB60FFF7D3F9B8607B6893F80D
:102D38003530DBB2022B08D07B6880225A657B686D
:102D4800002283F83420012352E07B681B681A684C
:102D58007B681B6822F016021A607B681B685A6938
:102D68007B681B6822F080025A617B681B6C002B11
:102D780003D17B689B6C002B07D07B681B681A68A3
:102D88007B681B6822F008021A607B681B681A6857
:102D98007B681B6822F001021A6013E0FFF798F9BC
:102DA8000246BB68D31A052B0CD97B6820225A65CA
:102DB8007B68032283F835207B68002283F834205F
:102DC800032315E07B681B681B6803F00103002BD5
:102DD800E4D17B68DB6D3F229A40FB689A607B6890
:102DE800012283F835207B68002283F834200023F1
:102DF80018461037BD4680BD80B483B000AF7860F8
:102E08007B6893F83530DBB2022B04D07B688022D4
:102E18005A6501230CE07B68052283F835207B681E
:102E28001B681A687B681B6822F001021A6000237D
:102E380018460C37BD465DF8047B704780B586B0F0
:102E480000AF78600023BB608E4B1B688E4AA2FBE4
:102E580003239B0A7B617B689B6D3B613B691B6815
:102E6800FB607B68DB6D08229A40FB681340002BEF
:102E78001AD07B681B681B6803F00403002B13D06F
:102E88007B681B681A687B681B6822F004021A605A
:102E98007B68DB6D08229A403B699A607B685B6DB2
:102EA80043F001027B685A657B68DB6D01229A401A
:102EB800FB681340002B12D07B681B685B6903F02A
:102EC8008003002B0BD07B68DB6D01229A403B69A5
:102ED8009A607B685B6D43F002027B685A657B6889
:102EE800DB6D04229A40FB681340002B12D07B68EC
:102EF8001B681B6803F00203002B0BD07B68DB6D9B
:102F080004229A403B699A607B685B6D43F0040237
:102F18007B685A657B68DB6D10229A40FB6813401A
:102F2800002B43D07B681B681B6803F00803002B49
:102F38003CD07B68DB6D10229A403B699A607B68C5
:102F48001B681B6803F48023002B18D07B681B6860
:102F58001B6803F40023002B08D17B681B6C002B33
:102F680024D07B681B6C786898471FE07B689B6C53
:102F7800002B1BD07B689B6C7868984716E07B68B1
:102F88001B681B6803F48073002B07D17B681B68E0
:102F98001A687B681B6822F008021A607B681B6C41
:102FA800002B03D07B681B6C786898477B68DB6DC7
:102FB80020229A40FB681340002B00F08F807B682A
:102FC8001B681B6803F01003002B00F087807B68E8
:102FD800DB6D20229A403B699A607B6893F8353014
:102FE800DBB2052B36D17B681B681A687B681B68C7
:102FF80022F016021A607B681B685A697B681B6896
:1030080022F080025A617B681B6C002B03D17B681D
:103018009B6C002B07D07B681B681A687B681B6851
:1030280022F008021A607B68DB6D3F229A403B69F8
:103038009A607B68012283F835207B68002283F838
:1030480034207B681B6D002B7ED07B681B6D7868F5
:10305800984779E07B681B681B6803F48023002B82
:103068001DD07B681B681B6803F40023002B0DD15F
:103078007B685B6C002B31D07B685B6C7868984709
:103088002CE000BF00000020B5814E1B7B68DB6B85
:10309800002B23D07B68DB6B786898471EE07B6841
:1030A8001B681B6803F48073002B0FD17B681B68B7
:1030B8001A687B681B6822F010021A607B6801227C
:1030C80083F835207B68002283F834207B68DB6B2B
:1030D800002B03D07B68DB6B786898477B685B6D57
:1030E800002B32D07B685B6D03F00103002B22D0EC
:1030F8007B68052283F835207B681B681A687B6823
:103108001B6822F001021A60BB680133BB607A6950
:103118009A4207D37B681B681B6803F00103002BE6
:10312800F2D100E000BF7B68012283F835207B687C
:10313800002283F834207B68DB6C002B05D07B6889
:10314800DB6C7868984700E000BF1837BD4680BD43
:1031580080B485B000AFF860B9607A603B60FB6806
:103168001B681A68FB681B6822F480221A60FB68D7
:103178001B683A685A60FB689B68402B08D1FB685B
:103188001B687A689A60FB681B68BA68DA6007E0AF
:10319800FB681B68BA689A60FB681B687A68DA6023
:1031A80000BF1437BD465DF8047B704780B485B016
:1031B80000AF78607B681B68DBB2103B144AA2FB47
:1031C80003231B09FB60134AFB6813441B781A4648
:1031D8007B68DA65FB68032B09D97B681B6823F4D5
:1031E8007F7323F003031A1D7B689A6507E07B68E9
:1031F8001B6823F47F7323F003037A6893657B6865
:103208009B6D18461437BD465DF8047B704700BFB8
:10321800ABAAAAAA1868000880B485B000AF786085
:103228000023FB737B689B6ABB607B689B69002BF0
:103238001FD1BB68032B56D801A252F823F000BF58
:10324800593200086B32000859320008EF32000882
:103258007B68DB6A03F08073002B46D00123FB7385
:1032680043E07B68DB6AB3F1C07F40D10123FB7385
:103278003DE07B689B69B3F5005F21D1BB68032BF8
:1032880037D801A252F823F0A1320008A73200086B
:10329800A1320008B93200080123FB7330E07B68D3
:1032A800DB6A03F08073002B25D00123FB7322E037
:1032B8007B68DB6AB3F1C07F1FD10123FB731CE07D
:1032C800BB68022B03D9BB68032B03D018E001238A
:1032D800FB7315E07B68DB6A03F08073002B0ED06C
:1032E8000123FB730BE000BF0AE000BF08E000BF4A
:1032F80006E000BF04E000BF02E000BF00E000BF3E
:10330800FB7B18461437BD465DF8047B704700BF49
:1033180080B489B000AF7860396000237B610023F6
:103328003B610023BB610023FB616BE10122FB6968
:1033380002FA03F37B613B681B687A6913403B61BF
:103348003A697B699A4240F05A813B685B6803F0AE
:103358000303012B05D03B685B6803F00303022BD2
:1033680030D17B689B68BB61FB695B00032202FA72
:1033780003F3DB43BA691340BB613B68DA68FB6956
:103388005B0002FA03F3BA691343BB617B68BA694D
:103398009A607B685B68BB610122FB6902FA03F3F0
:1033A800DB43BA691340BB613B685B681B0903F0E8
:1033B8000102FB6902FA03F3BA691343BB617B6834
:1033C800BA695A603B685B6803F00303032B17D0A4
:1033D8007B68DB68BB61FB695B00032202FA03F3CD
:1033E800DB43BA691340BB613B689A68FB695B00C1
:1033F80002FA03F3BA691343BB617B68BA69DA60FE
:103408003B685B6803F00303022B23D1FB69DA08EE
:103418007B68083253F82230BB61FB6903F007036D
:103428009B000F2202FA03F3DB43BA691340BB6126
:103438003B681A69FB6903F007039B0002FA03F370
:10344800BA691343BB61FB69DA087B680832B9695A
:1034580043F822107B681B68BB61FB695B00032291
:1034680002FA03F3DB43BA691340BB613B685B684C
:1034780003F00302FB695B0002FA03F3BA69134322
:10348800BB617B68BA691A603B685B6803F44033C8
:10349800002B00F0B4800023FB60604B5B6C5F4A3C
:1034A80043F4804353645D4B5B6C03F48043FB60DF
:1034B800FB685B4AFB699B08023352F82330BB6107
:1034C800FB6903F003039B000F2202FA03F3DB43BB
:1034D800BA691340BB617B68524A93422BD07B6820
:1034E800514A934225D07B68504A93421FD07B684B
:1034F8004F4A934219D07B684E4A934213D07B6857
:103508004D4A93420DD07B684C4A934207D07B6862
:103518004B4A934201D107230EE008230CE006230F
:103528000AE0052308E0042306E0032304E002235D
:1035380002E0012300E00023FA6902F0030292008E
:103548009340BA691343BB613549FB699B08023351
:10355800BA6941F823203B4B9B68BB613B69DB435D
:10356800BA691340BB613B685B6803F48013002BA6
:1035780003D0BA693B691343BB61324ABB699360A4
:10358800304BDB68BB613B69DB43BA691340BB6105
:103598003B685B6803F40013002B03D0BA693B69EE
:1035A8001343BB61274ABB69D360264B5B68BB6189
:1035B8003B69DB43BA691340BB613B685B6803F452
:1035C8000033002B03D0BA693B691343BB611D4A22
:1035D800BB6953601B4B1B68BB613B69DB43BA6922
:1035E8001340BB613B685B6803F48033002B03D056
:1035F800BA693B691343BB61124ABB691360FB6933
:103608000133FB61FB690F2B7FF690AE00BF00BF53
:103618002437BD465DF8047B704700BF0038024080
:103628000038014000000240000402400008024047
:10363800000C024000100240001402400018024032
:10364800001C0240003C014080B483B000AF7860A9
:103658000B467B8013467B707B78002B03D07A88DF
:103668007B689A6103E07B881A047B689A6100BFD3
:103678000C37BD465DF8047B704780B485B000AF59
:1036880078600B467B807B685B69FB607A88FB68A7
:1036980013401A04FB68D9437B880B401A437B68A4
:1036A8009A6100BF1437BD465DF8047B704700007F
:1036B80080B582B000AF0346FB80084B5A69FB888F
:1036C8001340002B06D0054AFB885361FB88184637
:1036D800FEF708F800BF0837BD4680BD003C014032
:1036E80080B586B000AF78607B68002B01D10123DC
:1036F80067E27B681B6803F00103002B75D0884BD9
:103708009B6803F00C03042B0CD0854B9B6803F0DB
:103718000C03082B12D1824B5B6803F48003B3F5CA
:10372800800F0BD17E4B1B6803F40033002B5BD05A
:103738007B685B68002B57D1012342E27B685B689A
:10374800B3F5803F06D1764B1B68754A43F4803346
:1037580013601DE07B685B68B3F5A02F0CD1704B3C
:103768001B686F4A43F4802313606D4B1B686C4AD7
:1037780043F4803313600BE0694B1B68684A23F4F9
:1037880080331360664B1B68654A23F480231360FB
:103798007B685B68002B13D0FEF79AFC386108E061
:1037A800FEF796FC02463B69D31A642B01D9032322
:1037B80007E25B4B1B6803F40033002BF0D014E0E6
:1037C800FEF786FC386108E0FEF782FC02463B699A
:1037D800D31A642B01D90323F3E1514B1B6803F47B
:1037E8000033002BF0D100E000BF7B681B6803F0BA
:1037F8000203002B63D04A4B9B6803F00C03002B99
:103808000BD0474B9B6803F00C03082B1CD1444B8F
:103818005B6803F48003002B16D1414B1B6803F04F
:103828000203002B05D07B68DB68012B01D0012344
:10383800C7E13B4B1B6823F0F8027B681B69DB0080
:10384800374913430B603AE07B68DB68002B20D0D4
:10385800344B01221A60FEF73BFC386108E0FEF7A2
:1038680037FC02463B69D31A022B01D90323A8E18E
:103878002B4B1B6803F00203002BF0D0284B1B686E
:1038880023F0F8027B681B69DB00254913430B60B2
:1038980015E0244B00221A60FEF71AFC386108E094
:1038A800FEF716FC02463B69D31A022B01D9032303
:1038B80087E11B4B1B6803F00203002BF0D17B68E8
:1038C8001B6803F00803002B36D07B685B69002B6C
:1038D80016D0154B01221A60FEF7FAFB386108E092
:1038E800FEF7F6FB02463B69D31A022B01D90323E4
:1038F80067E10B4B5B6F03F00203002BF0D01BE07A
:10390800094B00221A60FEF7E3FB38610EE0FEF770
:10391800DFFB02463B69D31A022B07D9032350E188
:103928000038024000004742800E4742884B5B6FD8
:1039380003F00203002BEAD17B681B6803F0040341
:10394800002B00F097800023FB75814B1B6C03F064
:103958008053002B0FD10023BB607D4B1B6C7C4A2E
:1039680043F0805313647A4B1B6C03F08053BB60A5
:10397800BB680123FB75774B1B6803F48073002B2E
:1039880018D1744B1B68734A43F480731360FEF7B5
:103998009FFB386108E0FEF79BFB02463B69D31AA0
:1039A800022B01D903230CE16A4B1B6803F48073D3
:1039B800002BF0D07B689B68012B06D1644B1B6FF2
:1039C800634A43F0010313671CE07B689B68052B7F
:1039D8000CD15F4B1B6F5E4A43F0040313675C4BCB
:1039E8001B6F5B4A43F0010313670BE0584B1B6FD7
:1039F800574A23F001031367554B1B6F544A23F0B2
:103A0800040313677B689B68002B15D0FEF760FBE7
:103A180038610AE0FEF75CFB02463B69D31A41F2C3
:103A28008832934201D90323CBE0494B1B6F03F043
:103A38000203002BEED014E0FEF74AFB38610AE0DF
:103A4800FEF746FB02463B69D31A41F2883293429D
:103A580001D90323B5E03E4B1B6F03F00203002B93
:103A6800EED1FB7D012B05D1394B1B6C384A23F075
:103A7800805313647B689B69002B00F0A180344B52
:103A88009B6803F00C03082B5CD07B689B69022BB6
:103A980041D1314B00221A60FEF71AFB386108E069
:103AA800FEF716FB02463B69D31A022B01D9032302
:103AB80087E0274B1B6803F00073002BF0D17B686D
:103AC800DA697B681B6A1A437B685B6A9B011A4345
:103AD8007B689B6A5B08013B1B041A437B68DB6AB3
:103AE8001B061B4913434B601B4B01221A60FEF750
:103AF800EFFA386108E0FEF7EBFA02463B69D31AA1
:103B0800022B01D903235CE0114B1B6803F00073FF
:103B1800002BF0D054E0104B00221A60FEF7D8FAC0
:103B2800386108E0FEF7D4FA02463B69D31A022B43
:103B380001D9032345E0064B1B6803F00073002BF3
:103B4800F0D13DE07B689B69012B07D1012338E068
:103B58000038024000700040600047421B4B5B6821
:103B6800FB607B689B69012B28D0FB6803F480020B
:103B78007B68DB699A4221D1FB6803F03F027B68CE
:103B88001B6A9A421AD1FA6847F6C07313407A68DA
:103B9800526A9201934211D1FB6803F440327B6868
:103BA8009B6A5B08013B1B049A4207D1FB6803F040
:103BB80070627B68DB6A1B069A4201D0012300E031
:103BC800002318461837BD4680BD00BF00380240A4
:103BD80080B584B000AF786039607B68002B01D174
:103BE8000123CCE0684B1B6803F007033A689A424C
:103BF8000CD9654B3A68D2B21A70634B1B6803F054
:103C080007033A689A4201D00123B8E07B681B6831
:103C180003F00203002B20D07B681B6803F0040329
:103C2800002B05D0594B9B68584A43F4E0539360E6
:103C38007B681B6803F00803002B05D0534B9B6877
:103C4800524A43F460439360504B9B6823F0F00260
:103C58007B689B684D4913438B607B681B6803F046
:103C68000103002B44D07B685B68012B07D1474BCD
:103C78001B6803F40033002B19D101237FE07B6814
:103C88005B68022B03D07B685B68032B07D13F4B33
:103C98001B6803F00073002B09D101236FE03B4B35
:103CA8001B6803F00203002B01D1012367E0374BA7
:103CB8009B6823F003027B685B68344913438B607D
:103CC800FEF706FAF8600AE0FEF702FA0246FB6819
:103CD800D31A41F28832934201D903234FE02B4B88
:103CE8009B6803F00C027B685B689B009A42EBD1EF
:103CF800254B1B6803F007033A689A420CD2224B03
:103D08003A68D2B21A70204B1B6803F007033A686E
:103D18009A4201D0012332E07B681B6803F0040358
:103D2800002B08D0194B9B6823F4E0527B68DB68B2
:103D3800164913438B607B681B6803F00803002B4C
:103D480009D0124B9B6823F460427B681B69DB0037
:103D58000E4913438B6000F021F802460B4B9B6819
:103D68001B0903F00F030A49CB5C22FA03F3094A43
:103D78001360094B1B681846FEF766F900231846BE
:103D88001037BD4680BD00BF003C024000380240ED
:103D98000068000800000020040000202DE9B04F52
:103DA80090B000AF00237B630023FB6300233B63D9
:103DB8000023BB63594B9B6803F00C03082B0DD001
:103DC800082B00F2A180002B02D0042B03D09BE02B
:103DD800534BBB639BE0534BBB6398E04F4B5B6813
:103DE80003F03F037B634D4B5B6803F48003002BB8
:103DF80028D04A4B5B689B0900223B627A623B6A87
:103E0800C3F308000021474B03FB01F2002300FB2A
:103E180003F31344434AA0FB0212FA620A46BA6249
:103E2800FA6A1344FB627B6B0022BB61FA61D7E933
:103E38000623D7E90A01FCF707FC02460B4613469E
:103E4800FB6353E0354B5B689B0900223B617A6159
:103E58003B69C3F3080A4FF0000B52465B464FF02C
:103E680000004FF00001590141EAD26150010246B9
:103E78000B46B2EB0A0863EB0B094FF000024FF058
:103E880000034FEA891343EA98634FEA8812B2EBBA
:103E9800080463EB09054FF000024FF00003EB0044
:103EA80043EA5473E20014461D4614EB0A033B60D0
:103EB80045EB0B037B604FF000024FF00003D7E99E
:103EC800004529468B02214643EA915321468A023E
:103ED800104619467B6B0022BB60FA60D7E90223C3
:103EE800FCF7B2FB02460B461346FB630B4B5B68C1
:103EF8001B0C03F0030301335B003B63FA6B3B6B62
:103F0800B2FBF3F3BB6302E0054BBB6300BFBB6BC3
:103F180018464037BD46BDE8B08F00BF00380240A4
:103F28000024F40040787D0180B400AF034B1B6887
:103F38001846BD465DF8047B704700BF00000020AE
:103F480080B500AFFFF7F0FF0246054B9B689B0A60
:103F580003F007030349CB5C22FA03F3184680BD3C
:103F6800003802401068000880B500AFFFF7DCFF9A
:103F78000246054B9B685B0B03F007030349CB5CC8
:103F880022FA03F3184680BD003802401068000882
:103F980080B582B000AF78607B68002B01D1012327
:103FA80041E07B6893F83D30DBB2002B06D17B689B
:103FB800002283F83C207868FDF71CFE7B6802220B
:103FC80083F83D207B681A687B68043319461046DD
:103FD80000F08AFF7B68012283F846207B68012273
:103FE80083F83E207B68012283F83F207B6801220A
:103FF80083F840207B68012283F841207B680122F6
:1040080083F842207B68012283F843207B680122E1
:1040180083F844207B68012283F845207B680122CD
:1040280083F83D20002318460837BD4680BD80B57B
:1040380082B000AF78607B68002B01D1012341E09A
:104048007B6893F83D30DBB2002B06D17B680022F9
:1040580083F83C207868FDF70DFD7B68022283F821
:104068003D207B681A687B6804331946104600F0C7
:104078003BFF7B68012283F846207B68012283F896
:104088003E207B68012283F83F207B68012283F869
:1040980040207B68012283F841207B68012283F855
:1040A80042207B68012283F843207B68012283F841
:1040B80044207B68012283F845207B68012283F82D
:1040C8003D20002318460837BD4680BD80B584B022
:1040D80000AF786039603B68002B09D17B6893F8A2
:1040E8003E30DBB2012B14BF01230023DBB222E0F8
:1040F8003B68042B09D17B6893F83F30DBB2012B76
:1041080014BF01230023DBB215E03B68082B09D15B
:104118007B6893F84030DBB2012B14BF01230023E6
:10412800DBB208E07B6893F84130DBB2012B14BFA7
:1041380001230023DBB2002B01D001237CE03B6884
:10414800002B04D17B68022283F83E2013E03B68F1
:10415800042B04D17B68022283F83F200BE03B68E4
:10416800082B04D17B68022283F8402003E07B6897
:10417800022283F841207B681B68012239681846AF
:1041880001F0A2F97B681B682D4A934204D07B6832
:104198001B682C4A934201D1012300E00023002B25
:1041A80007D07B681B685A6C7B681B6842F4004226
:1041B8005A647B681B68224A934222D07B681B683A
:1041C800B3F1804F1DD07B681B681F4A934218D0FB
:1041D8007B681B681D4A934213D07B681B681C4A86
:1041E80093420ED07B681B68164A934209D07B68BD
:1041F8001B68184A934204D07B681B68164A93428E
:1042080011D17B681B689B6803F00703FB60FB68A0
:10421800062B10D07B681B681A687B681B6842F005
:1042280001021A6007E07B681B681A687B681B68D4
:1042380042F001021A60002318461037BD4680BDBF
:104248000000014000040140000400400008004054
:10425800000C0040004001400018004080B586B0C6
:1042680000AFF860B9607A607B800023FB75BB689B
:10427800002B09D1FB6893F83E30DBB2022B0CBF50
:1042880001230023DBB222E0BB68042B09D1FB68C1
:1042980093F83F30DBB2022B0CBF01230023DBB2C3
:1042A80015E0BB68082B09D1FB6893F84030DBB2F6
:1042B800022B0CBF01230023DBB208E0FB6893F854
:1042C8004130DBB2022B0CBF01230023DBB2002BF1
:1042D80001D0022371E1BB68002B09D1FB6893F878
:1042E8003E30DBB2012B0CBF01230023DBB222E0FE
:1042F800BB68042B09D1FB6893F83F30DBB2012B74
:104308000CBF01230023DBB215E0BB68082B09D1E1
:10431800FB6893F84030DBB2012B0CBF012300236C
:10432800DBB208E0FB6893F84130DBB2012B0CBF2D
:1043380001230023DBB2002B24D07B68002B02D0A2
:104348007B88002B01D1012337E1BB68002B04D106
:10435800FB68022283F83E2016E0BB68042B04D1D8
:10436800FB68022283F83F200EE0BB68082B04D1CB
:10437800FB68022283F8402006E0FB68022283F8EB
:10438800412001E0012318E1BB680C2B00F2AE804C
:1043980001A252F823F000BFD5430008F5440008F5
:1043A800F5440008F54400081D440008F5440008D9
:1043B800F5440008F544000865440008F544000881
:1043C800F5440008F5440008AD440008FB685B6A42
:1043D8007C4ADA63FB685B6A7B4A1A64FB685B6A3F
:1043E8007A4ADA64FB68586A7968FB681B68343370
:1043F8001A467B88FEF738FC0346002B01D00123C0
:10440800DBE0FB681B68DA68FB681B6842F4007233
:10441800DA606EE0FB689B6A6A4ADA63FB689B6A4B
:10442800694A1A64FB689B6A684ADA64FB68986A96
:104438007968FB681B6838331A467B88FEF714FCDA
:104448000346002B01D00123B7E0FB681B68DA683C
:10445800FB681B6842F48062DA604AE0FB68DB6A4A
:10446800584ADA63FB68DB6A574A1A64FB68DB6AF6
:10447800564ADA64FB68D86A7968FB681B683C337B
:104488001A467B88FEF7F0FB0346002B01D0012378
:1044980093E0FB681B68DA68FB681B6842F40062FB
:1044A800DA6026E0FB681B6B464ADA63FB681B6B25
:1044B800454A1A64FB681B6B444ADA64FB68186B4C
:1044C8007968FB681B6840331A467B88FEF7CCFB8B
:1044D8000346002B01D001236FE0FB681B68DA68F4
:1044E800FB681B6842F48052DA6002E00123FB7526
:1044F80000BFFB7D002B5FD1FB681B680122B968F8
:10450800184600F0E1FFFB681B68314A934204D06B
:10451800FB681B682F4A934201D1012300E0002366
:10452800002B07D0FB681B685A6CFB681B6842F4B9
:1045380000425A64FB681B68254A934222D0FB68F4
:104548001B68B3F1804F1DD0FB681B68224A934259
:1045580018D0FB681B68214A934213D0FB681B687C
:104568001F4A93420ED0FB681B681A4A934209D02F
:10457800FB681B681B4A934204D0FB681B681A4AF5
:10458800934211D1FB681B689B6803F007033B61EA
:104598003B69062B10D0FB681B681A68FB681B6810
:1045A80042F001021A6007E0FB681B681A68FB68A2
:1045B8001B6842F001021A60FB7D18461837BD4699
:1045C80080BD00BFE14D0008894E00084F4D00082E
:1045D80000000140000401400004004000080040C1
:1045E800000C0040004001400018004080B584B035
:1045F80000AF786039600023FB733B680C2B55D8FB
:1046080001A252F823F000BF45460008B54600084D
:10461800B5460008B546000861460008B5460008DA
:10462800B5460008B54600087D460008B5460008AE
:10463800B5460008B5460008994600087B681B681F
:10464800DA687B681B6822F40072DA607B685B6A50
:104658001846FEF7D1FB2CE07B681B68DA687B689C
:104668001B6822F48062DA607B689B6A1846FEF752
:10467800C3FB1EE07B681B68DA687B681B6822F452
:104688000062DA607B68DB6A1846FEF7B5FB10E06B
:104698007B681B68DA687B681B6822F48052DA60E2
:1046A8007B681B6B1846FEF7A7FB02E00123FB7330
:1046B80000BFFB7B002B61D17B681B680022396837
:1046C800184600F001FF7B681B682F4A934204D00C
:1046D8007B681B682D4A934201D1012300E0002327
:1046E800002B17D07B681B681A6A41F2111313401C
:1046F800002B0FD17B681B681A6A40F244431340B1
:10470800002B07D17B681B685A6C7B681B6822F4F6
:1047180000425A647B681B681A6A41F211131340FD
:10472800002B0FD17B681B681A6A40F24443134080
:10473800002B07D17B681B681A687B681B6822F00E
:1047480001021A603B68002B04D17B68012283F8C0
:104758003E2013E03B68042B04D17B68012283F8D8
:104768003F200BE03B68082B04D17B68012283F8CB
:10477800402003E07B68012283F84120FB7B184638
:104788001037BD4680BD00BF000001400004014055
:1047980080B586B000AF786039607B68002B01D1A6
:1047A800012397E07B6893F83D30DBB2002B06D1FC
:1047B8007B68002283F83C207868FDF77DF97B68E8
:1047C800022283F83D207B681B689B687A68126820
:1047D80023F4804323F0070393607B681A687B689F
:1047E80004331946104600F07FFB7B681B689B6802
:1047F8007B617B681B689B693B617B681B681B6AE4
:10480800FB603B681B687A6913437B613B6923F44F
:10481800407323F003033B613B689A683B689B69DC
:104828001B0213433A6913433B613B6923F440631A
:1048380023F00C033B613B6923F4704323F0F0033E
:104848003B613B68DA683B68DB691B0213433A69E2
:1048580013433B613B681B691A013B681B6A1B03D6
:1048680013433A6913433B61FB6823F02203FB605F
:10487800FB6823F08803FB603B685A683B685B6908
:104888001B011343FA681343FB607B681B687A6952
:104898009A607B681B683A699A617B681B68FA684A
:1048A8001A627B68012283F846207B68012283F81C
:1048B8003E207B68012283F83F207B68012283F831
:1048C80042207B68012283F843207B68012283F819
:1048D8003D20002318461837BD4680BD80B584B0FA
:1048E80000AF786039607B6893F83E30FB737B6873
:1048F80093F83F30BB737B6893F842307B737B68D7
:1049080093F843303B733B68002B10D1FB7B012BA2
:1049180002D17B7B012B01D0012369E07B68022255
:1049280083F83E207B68022283F8422031E03B680E
:10493800042B10D1BB7B012B02D13B7B012B01D077
:10494800012355E07B68022283F83F207B6802221E
:1049580083F843201DE0FB7B012B08D1BB7B012B97
:1049680005D17B7B012B02D13B7B012B01D001239D
:104978003EE07B68022283F83E207B68022283F8AF
:104988003F207B68022283F842207B68022283F85A
:1049980043203B68002B03D03B68042B08D00FE072
:1049A8007B681B6801220021184600F08DFD16E087
:1049B8007B681B6801220421184600F085FD0EE083
:1049C8007B681B6801220021184600F07DFD7B688A
:1049D8001B6801220421184600F076FD00BF7B68A1
:1049E8001B681A687B681B6842F001021A60002382
:1049F80018461037BD4680BD80B586B000AFF86058
:104A0800B9607A600023FB75FB6893F83C30012B92
:104A180001D10223AEE0FB68012283F83C207B68C9
:104A28000C2B00F29F8001A252F823F0694A00087B
:104A38006D4B00086D4B00086D4B0008A94A000833
:104A48006D4B00086D4B00086D4B0008EB4A0008E1
:104A58006D4B00086D4B00086D4B00082B4B000890
:104A6800FB681B68B968184600F0E4FAFB681B6825
:104A78009A69FB681B6842F008029A61FB681B6828
:104A88009A69FB681B6822F004029A61FB681B683C
:104A98009969BB681A69FB681B680A439A6164E0F4
:104AA800FB681B68B968184600F034FBFB681B6894
:104AB8009A69FB681B6842F400629A61FB681B688C
:104AC8009A69FB681B6822F480629A61FB681B681C
:104AD8009969BB681B691A02FB681B680A439A61DB
:104AE80043E0FB681B68B968184600F089FBFB685F
:104AF8001B68DA69FB681B6842F00802DA61FB6828
:104B08001B68DA69FB681B6822F00402DA61FB683B
:104B18001B68D969BB681A69FB681B680A43DA61B4
:104B280023E0FB681B68B968184600F0DDFBFB68EA
:104B38001B68DA69FB681B6842F40062DA61FB688B
:104B48001B68DA69FB681B6822F48062DA61FB681B
:104B58001B68D969BB681B691A02FB681B680A4392
:104B6800DA6102E00123FB7500BFFB68002283F8CD
:104B78003C20FB7D18461837BD4680BD80B584B003
:104B880000AF786039600023FB737B6893F83C3092
:104B9800012B01D10223B4E07B68012283F83C2079
:104BA8007B68022283F83D207B681B689B68BB609A
:104BB800BB6823F07703BB60BB6823F47F43BB600B
:104BC8007B681B68BA689A603B681B68B3F5005F2E
:104BD8003ED0B3F5005F00F28780B3F5805F00F048
:104BE8008680B3F5805F7FD8702B1AD0702B7BD866
:104BF800602B50D0602B77D8502B3CD0502B73D8DB
:104C0800402B58D0402B6FD8302B64D0302B6BD82A
:104C1800202B60D0202B67D8002B5CD0102B5AD0CB
:104C280062E07B6818683B6899683B685A683B682B
:104C3800DB6800F029FC7B681B689B68BB60BB686D
:104C480043F07703BB607B681B68BA689A604FE0E3
:104C58007B6818683B6899683B685A683B68DB68FA
:104C680000F012FC7B681B689A687B681B6842F43A
:104C780080429A603CE07B6818683B6859683B68EA
:104C8800DB681A4600F086FB7B681B6850211846D3
:104C980000F0DFFB2CE07B6818683B6859683B68CC
:104CA800DB681A4600F0A5FB7B681B686021184684
:104CB80000F0CFFB1CE07B6818683B6859683B68CC
:104CC800DB681A4600F066FB7B681B6840211846C3
:104CD80000F0BFFB0CE07B681A683B681B6819464C
:104CE800104600F0B6FB03E00123FB7300E000BFB1
:104CF8007B68012283F83D207B68002283F83C20F2
:104D0800FB7B18461037BD4680BD80B483B000AF2A
:104D1800786000BF0C37BD465DF8047B704780B4EF
:104D280083B000AF786000BF0C37BD465DF8047BE8
:104D3800704780B483B000AF786000BF0C37BD46C1
:104D48005DF8047B704780B584B000AF78607B68FD
:104D58009B6BFB60FB685B6A7A689A4207D1FB68C9
:104D680001221A77FB68012283F83E202AE0FB68BB
:104D78009B6A7A689A4207D1FB6802221A77FB6815
:104D8800012283F83F201DE0FB68DB6A7A689A42BB
:104D980007D1FB6804221A77FB68012283F84020B8
:104DA80010E0FB681B6B7A689A4207D1FB680822FF
:104DB8001A77FB68012283F8412003E0FB6801228F
:104DC80083F83D20F868FFF7B4FFFB6800221A77E4
:104DD80000BF1037BD4680BD80B584B000AF786095
:104DE8007B689B6BFB60FB685B6A7A689A420BD1B5
:104DF800FB6801221A777B68DB69002B36D1FB68D8
:104E0800012283F83E2031E0FB689B6A7A689A4267
:104E18000BD1FB6802221A777B68DB69002B25D14E
:104E2800FB68012283F83F2020E0FB68DB6A7A6890
:104E38009A420BD1FB6804221A777B68DB69002B46
:104E480014D1FB68012283F840200FE0FB681B6B3C
:104E58007A689A420AD1FB6808221A777B68DB696C
:104E6800002B03D1FB68012283F84120F868FFF783
:104E78004CFFFB6800221A7700BF1037BD4680BD83
:104E880080B584B000AF78607B689B6BFB60FB6883
:104E98005B6A7A689A4203D1FB6801221A7719E0A3
:104EA800FB689B6A7A689A4203D1FB6802221A77E8
:104EB80010E0FB68DB6A7A689A4203D1FB68042237
:104EC8001A7707E0FB681B6B7A689A4202D1FB6885
:104ED80008221A77F868FFF722FFFB6800221A7782
:104EE80000BF1037BD4680BD80B485B000AF786084
:104EF80039607B681B68FB607B68434A934213D028
:104F08007B68B3F1804F0FD07B68404A93420BD047
:104F18007B683F4A934207D07B683E4A934203D05E
:104F28007B683D4A934208D1FB6823F07003FB601D
:104F38003B685B68FA681343FB607B68324A9342BC
:104F48002BD07B68B3F1804F27D07B682F4A9342E0
:104F580023D07B682E4A93421FD07B682D4A934208
:104F68001BD07B682C4A934217D07B682B4A93420C
:104F780013D07B682A4A93420FD07B68294A934210
:104F88000BD07B68284A934207D07B68274A934214
:104F980003D07B68264A934208D1FB6823F4407308
:104FA800FB603B68DB68FA681343FB60FB6823F02F
:104FB80080023B685B691343FB603B689A687B68C7
:104FC800DA623B681A687B689A627B680E4A934289
:104FD80003D07B68104A934203D13B681A697B6807
:104FE8001A637B681B6843F004027B681A607B685D
:104FF80001225A617B68FA681A6000BF1437BD46FF
:105008005DF8047B704700BF0000014000040040C9
:1050180000080040000C004000040140004001402E
:10502800004401400048014000180040001C0040B6
:105038000020004080B487B000AF786039607B689A
:105048001B6A7B617B681B6A23F001027B681A621A
:105058007B685B683B617B689B69FB60FB6823F04E
:105068007003FB60FB6823F00303FB603B681B686D
:10507800FA681343FB607B6923F002037B613B689A
:105088009B687A6913437B617B68204A934203D00B
:105098007B681F4A93420CD17B6923F008037B612C
:1050A8003B68DB687A6913437B617B6923F00403FF
:1050B8007B617B68154A934203D07B68144A93420C
:1050C80011D13B6923F480733B613B6923F400737E
:1050D8003B613B685B693A6913433B613B689B6989
:1050E8003A6913433B617B683A695A607B68FA689E
:1050F8009A613B685A687B685A637B687A691A6266
:1051080000BF1C37BD465DF8047B704700000140B6
:105118000004014080B487B000AF786039607B68D4
:105128001B6A7B617B681B6A23F010027B681A622A
:105138007B685B683B617B689B69FB60FB6823F469
:10514800E043FB60FB6823F44073FB603B681B682B
:105158001B02FA681343FB607B6923F020037B6121
:105168003B689B681B017A6913437B617B68224A11
:10517800934203D07B68214A93420DD17B6923F087
:1051880080037B613B68DB681B017A6913437B61A1
:105198007B6923F040037B617B68174A934203D005
:1051A8007B68164A934213D13B6923F480633B61C1
:1051B8003B6923F400633B613B685B699B003A6988
:1051C80013433B613B689B699B003A6913433B610E
:1051D8007B683A695A607B68FA689A613B685A68E2
:1051E8007B689A637B687A691A6200BF1C37BD4680
:1051F8005DF8047B704700BF0000014000040140D7
:1052080080B487B000AF786039607B681B6A7B61C7
:105218007B681B6A23F480727B681A627B685B6810
:105228003B617B68DB69FB60FB6823F07003FB6014
:10523800FB6823F00303FB603B681B68FA681343B1
:10524800FB607B6923F400737B613B689B681B02EE
:105258007A6913437B617B68214A934203D07B6858
:10526800204A93420DD17B6923F400637B613B683C
:10527800DB681B027A6913437B617B6923F48063D3
:105288007B617B68164A934203D07B68154A934238
:1052980013D13B6923F480533B613B6923F40053EA
:1052A8003B613B685B691B013A6913433B613B689F
:1052B8009B691B013A6913433B617B683A695A60F1
:1052C8007B68FA68DA613B685A687B68DA637B68EE
:1052D8007A691A6200BF1C37BD465DF8047B7047C7
:1052E800000001400004014080B487B000AF78603E
:1052F80039607B681B6A3B617B681B6A23F48052B8
:105308007B681A627B685B687B617B68DB69FB6032
:10531800FB6823F4E043FB60FB6823F44073FB6005
:105328003B681B681B02FA681343FB603B6923F464
:1053380000533B613B689B681B033A6913433B611D
:105348007B68124A934203D07B68114A934209D181
:105358007B6923F480437B613B685B699B017A69C5
:1053680013437B617B687A695A607B68FA68DA6103
:105378003B685A687B681A647B683A691A6200BF9E
:105388001C37BD465DF8047B704700BF0000014034
:105398000004014080B487B000AFF860B9607A605B
:1053A800FB681B6A7B61FB681B6A23F00102FB68D0
:1053B8001A62FB689B693B613B6923F0F0033B6120
:1053C8007B681B013A6913433B617B6923F00A033D
:1053D8007B617A69BB6813437B61FB683A699A61B0
:1053E800FB687A691A6200BF1C37BD465DF8047B0A
:1053F800704780B487B000AFF860B9607A60FB6826
:105408001B6A7B61FB681B6A23F01002FB681A6247
:10541800FB689B693B613B6923F470433B617B6894
:105428001B033A6913433B617B6923F0A0037B614B
:10543800BB681B017A6913437B61FB683A699A610F
:10544800FB687A691A6200BF1C37BD465DF8047BA9
:10545800704780B485B000AF786039607B689B681E
:10546800FB60FB6823F07003FB603A68FB6813433A
:1054780043F00703FB607B68FA689A6000BF143743
:10548800BD465DF8047B704780B487B000AFF86014
:10549800B9607A603B60FB689B687B617B6923F439
:1054A8007F437B613B681A027B681A43BB681343DE
:1054B8007A6913437B61FB687A699A6000BF1C377D
:1054C800BD465DF8047B704780B487B000AFF860D4
:1054D800B9607A60BB6803F01F03012202FA03F384
:1054E8007B61FB681A6A7B69DB431A40FB681A62B6
:1054F800FB681A6ABB6803F01F03796801FA03F3B3
:105508001A43FB681A6200BF1C37BD465DF8047B6E
:105518007047000080B485B000AF786039607B6860
:1055280093F83C30012B01D102235AE07B68012219
:1055380083F83C207B68022283F83D207B681B6847
:105548005B68FB607B681B689B68BB60FB6823F03B
:105558007003FB603B681B68FA681343FB607B6859
:105568001B68FA685A607B681B68214A934222D0FC
:105578007B681B68B3F1804F1DD07B681B681D4A90
:10558800934218D07B681B681B4A934213D07B68F0
:105598001B681A4A93420ED07B681B68184A9342CC
:1055A80009D07B681B68174A934204D07B681B6844
:1055B800154A93420CD1BB6823F08003BB603B685B
:1055C8005B68BA681343BB607B681B68BA689A60FB
:1055D8007B68012283F83D207B68002283F83C2009
:1055E800002318461437BD465DF8047B704700BF9A
:1055F800000001400004004000080040000C00408A
:1056080000040140004001400018004080B485B00B
:1056180000AF786039600023FB607B6893F83C300A
:10562800012B01D102233DE07B68012283F83C2055
:10563800FB6823F0FF023B68DB681343FB60FB68F1
:1056480023F440723B689B681343FB60FB6823F4B8
:1056580080623B685B681343FB60FB6823F400626D
:105668003B681B681343FB60FB6823F480523B686C
:105678001B691343FB60FB6823F400523B685B69BA
:105688001343FB60FB6823F480423B68DB691343E8
:10569800FB607B681B68FA685A647B68002283F8A1
:1056A8003C20002318461437BD465DF8047B70473C
:1056B80080B582B000AF78607B68002B01D10123F0
:1056C80042E07B6893F84130DBB2002B06D17B685F
:1056D800002283F840207868FCF7BEFB7B68242210
:1056E80083F841207B681B68DA687B681B6822F4B2
:1056F8000052DA60786800F0D3FD7B681B681A698D
:105708007B681B6822F490421A617B681B685A699F
:105718007B681B6822F02A025A617B681B68DA687A
:105728007B681B6842F40052DA607B6800225A6486
:105738007B68202283F841207B68202283F842205E
:105748007B6800225A63002318460837BD4680BD8F
:1057580080B58AB002AFF860B9603B601346FB8041
:1057680000237B61FB6893F84130DBB2202B75D1B5
:10577800BB68002B02D0FB88002B01D101236EE00F
:10578800FB6800225A64FB68212283F84120FCF759
:105798009FFC7861FB68FA889A84FB68FA88DA8447
:1057A800FB689B68B3F5805F08D1FB681B69002B19
:1057B80004D10023FB61BB68BB6103E0BB68FB61EC
:1057C8000023BB612EE03B6800937B6900228021A7
:1057D800F86800F037FB0346002B05D0FB68202251
:1057E80083F8412003233AE0FB69002B0BD1BB6906
:1057F8001B881A46FB681B68C2F308025A60BB691B
:105808000233BB6107E0FB691A78FB681B685A60C2
:10581800FB690133FB61FB68DB8C9BB2013B9AB2ED
:10582800FB68DA84FB68DB8C9BB2002BCBD13B682E
:1058380000937B6900224021F86800F003FB0346CF
:10584800002B05D0FB68202283F84120032306E0C3
:10585800FB68202283F84120002300E00223184639
:105868002037BD4680BD80B584B000AFF860B96010
:105878001346FB80FB6893F84230DBB2202B12D131
:10588800BB68002B02D0FB88002B01D101230BE061
:10589800FB6800221A63FB881A46B968F86800F0AA
:1058A8002AFB034600E0022318461037BD4680BD98
:1058B80080B5BAB000AF78607B681B681B68C7F812
:1058C800E4307B681B68DB68C7F8E0307B681B68DE
:1058D8005B69C7F8DC300023C7F8D8300023C7F865
:1058E800D430D7F8E43003F00F03C7F8D830D7F82E
:1058F800D830002B0FD1D7F8E43003F02003002B69
:1059080009D0D7F8E03003F02003002B03D07868E3
:1059180000F007FC73E2D7F8D830002B00F0DE80E7
:10592800D7F8DC3003F00103002B06D1D7F8E030BC
:1059380003F49073002B00F0D180D7F8E43003F023
:105948000103002B0BD0D7F8E03003F48073002B51
:1059580005D07B685B6C43F001027B685A64D7F81A
:10596800E43003F00403002B0BD0D7F8DC3003F04D
:105978000103002B05D07B685B6C43F002027B6857
:105988005A64D7F8E43003F00203002B0BD0D7F8A1
:10599800DC3003F00103002B05D07B685B6C43F01F
:1059A80004027B685A64D7F8E43003F00803002B3C
:1059B80011D0D7F8E03003F02003002B05D1D7F839
:1059C800DC3003F00103002B05D07B685B6C43F0EF
:1059D80008027B685A647B685B6C002B00F00A82C3
:1059E800D7F8E43003F02003002B08D0D7F8E030D4
:1059F80003F02003002B02D0786800F092FB7B684C
:105A08001B685B6903F04003402B0CBF0123002394
:105A1800DBB2C7F8D4307B685B6C03F00803002B5B
:105A280003D1D7F8D430002B4FD0786800F09DFA16
:105A38007B681B685B6903F04003402B41D17B689E
:105A48001B681433C7F89C30D7F89C3053E8003FE4
:105A5800C7F89830D7F8983023F04003C7F8D0300B
:105A68007B681B681433D7F8D020C7F8A820C7F87C
:105A7800A430D7F8A410D7F8A82041E80023C7F825
:105A8800A030D7F8A030002BD9D17B68DB6B002B76
:105A980013D07B68DB6B8A4A1A657B68DB6B184618
:105AA800FDF7AAF90346002B16D07B68DB6B1B6D4C
:105AB8007A68D26B104698470EE0786800F0ACF927
:105AC8000AE0786800F0A8F906E0786800F0A4F920
